{
  "_format": "hh-sol-artifact-1",
  "contractName": "LendBorrow",
  "sourceName": "contracts/LendBorrow.sol",
  "abi": [
    {
      "inputs": [],
      "stateMutability": "nonpayable",
      "type": "constructor"
    },
    {
      "anonymous": false,
      "inputs": [
        {
          "indexed": true,
          "internalType": "address",
          "name": "owner",
          "type": "address"
        },
        {
          "indexed": false,
          "internalType": "uint256",
          "name": "amount",
          "type": "uint256"
        },
        {
          "indexed": false,
          "internalType": "uint256",
          "name": "timestamp",
          "type": "uint256"
        }
      ],
      "name": "Deposit",
      "type": "event"
    },
    {
      "anonymous": false,
      "inputs": [
        {
          "indexed": true,
          "internalType": "address",
          "name": "from",
          "type": "address"
        },
        {
          "indexed": true,
          "internalType": "address",
          "name": "to",
          "type": "address"
        },
        {
          "indexed": false,
          "internalType": "uint256",
          "name": "amount",
          "type": "uint256"
        },
        {
          "indexed": false,
          "internalType": "uint256",
          "name": "timestamp",
          "type": "uint256"
        }
      ],
      "name": "Transfer",
      "type": "event"
    },
    {
      "anonymous": false,
      "inputs": [
        {
          "indexed": true,
          "internalType": "address",
          "name": "owner",
          "type": "address"
        },
        {
          "indexed": false,
          "internalType": "uint256",
          "name": "amount",
          "type": "uint256"
        },
        {
          "indexed": false,
          "internalType": "uint256",
          "name": "timestamp",
          "type": "uint256"
        }
      ],
      "name": "Withdraw",
      "type": "event"
    },
    {
      "inputs": [],
      "name": "deposittoken",
      "outputs": [],
      "stateMutability": "payable",
      "type": "function"
    },
    {
      "inputs": [],
      "name": "getCustomerBal",
      "outputs": [
        {
          "internalType": "uint256",
          "name": "",
          "type": "uint256"
        }
      ],
      "stateMutability": "view",
      "type": "function"
    },
    {
      "inputs": [],
      "name": "tokenOwner",
      "outputs": [
        {
          "internalType": "address",
          "name": "",
          "type": "address"
        }
      ],
      "stateMutability": "view",
      "type": "function"
    },
    {
      "inputs": [
        {
          "internalType": "address",
          "name": "",
          "type": "address"
        }
      ],
      "name": "tokenownerBalance",
      "outputs": [
        {
          "internalType": "uint256",
          "name": "",
          "type": "uint256"
        }
      ],
      "stateMutability": "view",
      "type": "function"
    },
    {
      "inputs": [
        {
          "internalType": "address payable",
          "name": "_to",
          "type": "address"
        },
        {
          "internalType": "uint256",
          "name": "_total",
          "type": "uint256"
        }
      ],
      "name": "withdrawtoken",
      "outputs": [],
      "stateMutability": "nonpayable",
      "type": "function"
    }
  ],
  "bytecode": "0x608060405234801561001057600080fd5b50336000806101000a81548173ffffffffffffffffffffffffffffffffffffffff021916908373ffffffffffffffffffffffffffffffffffffffff160217905550610969806100606000396000f3fe60806040526004361061004a5760003560e01c80631df94b0c1461004f5780638cd40c9d146100595780639b2a5c6e14610082578063a3e67610146100ad578063e6db2ec5146100d8575b600080fd5b610057610115565b005b34801561006557600080fd5b50610080600480360381019061007b9190610637565b610268565b005b34801561008e57600080fd5b50610097610442565b6040516100a49190610792565b60405180910390f35b3480156100b957600080fd5b506100c26104d1565b6040516100cf9190610737565b60405180910390f35b3480156100e457600080fd5b506100ff60048036038101906100fa919061060e565b6104f5565b60405161010c9190610792565b60405180910390f35b6000341415610159576040517f08c379a000000000000000000000000000000000000000000000000000000000815260040161015090610752565b60405180910390fd5b34600160003373ffffffffffffffffffffffffffffffffffffffff1673ffffffffffffffffffffffffffffffffffffffff16815260200190815260200160002060008282546101a891906107e7565b925050819055503373ffffffffffffffffffffffffffffffffffffffff167f90890809c654f11d6e72a28fa60149770a0d11ec6c92319d6ceb2bb0a4ea1a1534426040516101f79291906107ad565b60405180910390a23073ffffffffffffffffffffffffffffffffffffffff163373ffffffffffffffffffffffffffffffffffffffff167f9ed053bb818ff08b8353cd46f78db1f0799f31c9e4458fdb425c10eccd2efc44344260405161025e9291906107ad565b60405180910390a3565b600160003373ffffffffffffffffffffffffffffffffffffffff1673ffffffffffffffffffffffffffffffffffffffff168152602001908152602001600020548111156102ea576040517f08c379a00000000000000000000000000000000000000000000000000000000081526004016102e190610772565b60405180910390fd5b80600160003373ffffffffffffffffffffffffffffffffffffffff1673ffffffffffffffffffffffffffffffffffffffff1681526020019081526020016000206000828254610339919061083d565b925050819055508173ffffffffffffffffffffffffffffffffffffffff166108fc829081150290604051600060405180830381858888f19350505050158015610386573d6000803e3d6000fd5b503373ffffffffffffffffffffffffffffffffffffffff167ff279e6a1f5e320cca91135676d9cb6e44ca8a08c0b88342bcdb1144f6511b56882426040516103cf9291906107ad565b60405180910390a23373ffffffffffffffffffffffffffffffffffffffff163073ffffffffffffffffffffffffffffffffffffffff167f9ed053bb818ff08b8353cd46f78db1f0799f31c9e4458fdb425c10eccd2efc4483426040516104369291906107ad565b60405180910390a35050565b600061048c600160003373ffffffffffffffffffffffffffffffffffffffff1673ffffffffffffffffffffffffffffffffffffffff1681526020019081526020016000205461050d565b600160003373ffffffffffffffffffffffffffffffffffffffff1673ffffffffffffffffffffffffffffffffffffffff16815260200190815260200160002054905090565b60008054906101000a900473ffffffffffffffffffffffffffffffffffffffff1681565b60016020528060005260406000206000915090505481565b6105a3816040516024016105219190610792565b6040516020818303038152906040527ff5b1bba9000000000000000000000000000000000000000000000000000000007bffffffffffffffffffffffffffffffffffffffffffffffffffffffff19166020820180517bffffffffffffffffffffffffffffffffffffffffffffffffffffffff83818316178352505050506105a6565b50565b60008151905060006a636f6e736f6c652e6c6f679050602083016000808483855afa5050505050565b6000813590506105de816108ee565b92915050565b6000813590506105f381610905565b92915050565b6000813590506106088161091c565b92915050565b60006020828403121561062057600080fd5b600061062e848285016105cf565b91505092915050565b6000806040838503121561064a57600080fd5b6000610658858286016105e4565b9250506020610669858286016105f9565b9150509250929050565b61067c81610871565b82525050565b600061068f601f836107d6565b91507f596f75206e65656420746f206465706f73697420736f6d6520746f6b656e21006000830152602082019050919050565b60006106cf6026836107d6565b91507f596f75206861766520696e7375666669656e7420746f6b656e7320746f20776960008301527f74686472617700000000000000000000000000000000000000000000000000006020830152604082019050919050565b610731816108b5565b82525050565b600060208201905061074c6000830184610673565b92915050565b6000602082019050818103600083015261076b81610682565b9050919050565b6000602082019050818103600083015261078b816106c2565b9050919050565b60006020820190506107a76000830184610728565b92915050565b60006040820190506107c26000830185610728565b6107cf6020830184610728565b9392505050565b600082825260208201905092915050565b60006107f2826108b5565b91506107fd836108b5565b9250827fffffffffffffffffffffffffffffffffffffffffffffffffffffffffffffffff03821115610832576108316108bf565b5b828201905092915050565b6000610848826108b5565b9150610853836108b5565b925082821015610866576108656108bf565b5b828203905092915050565b600061087c82610895565b9050919050565b600061088e82610895565b9050919050565b600073ffffffffffffffffffffffffffffffffffffffff82169050919050565b6000819050919050565b7f4e487b7100000000000000000000000000000000000000000000000000000000600052601160045260246000fd5b6108f781610871565b811461090257600080fd5b50565b61090e81610883565b811461091957600080fd5b50565b610925816108b5565b811461093057600080fd5b5056fea26469706673582212202e1e2294ccb999efaeb7f1c851a0e8560a843afd8d94ec87f5033e38a01c6b0464736f6c63430008000033",
  "linkReferences": {},
  "deployedLinkReferences": {}
}